{
  "_format": "hh-sol-artifact-1",
  "contractName": "CarbonCreditTrading",
  "sourceName": "contracts/CarbonCreditTrading.sol",
  "abi": [
    {
      "inputs": [],
      "stateMutability": "nonpayable",
      "type": "constructor"
    },
    {
      "anonymous": false,
      "inputs": [
        {
          "indexed": true,
          "internalType": "address",
          "name": "user",
          "type": "address"
        }
      ],
      "name": "BalanceUpdated",
      "type": "event"
    },
    {
      "anonymous": false,
      "inputs": [
        {
          "indexed": true,
          "internalType": "uint256",
          "name": "creditId",
          "type": "uint256"
        },
        {
          "indexed": true,
          "internalType": "address",
          "name": "issuer",
          "type": "address"
        },
        {
          "indexed": false,
          "internalType": "string",
          "name": "projectType",
          "type": "string"
        }
      ],
      "name": "CreditIssued",
      "type": "event"
    },
    {
      "anonymous": false,
      "inputs": [
        {
          "indexed": true,
          "internalType": "address",
          "name": "issuer",
          "type": "address"
        }
      ],
      "name": "IssuerAuthorized",
      "type": "event"
    },
    {
      "anonymous": false,
      "inputs": [
        {
          "indexed": true,
          "internalType": "uint256",
          "name": "orderId",
          "type": "uint256"
        },
        {
          "indexed": true,
          "internalType": "address",
          "name": "buyer",
          "type": "address"
        },
        {
          "indexed": true,
          "internalType": "uint256",
          "name": "creditId",
          "type": "uint256"
        }
      ],
      "name": "OrderCreated",
      "type": "event"
    },
    {
      "anonymous": false,
      "inputs": [
        {
          "indexed": true,
          "internalType": "uint256",
          "name": "orderId",
          "type": "uint256"
        },
        {
          "indexed": true,
          "internalType": "address",
          "name": "buyer",
          "type": "address"
        },
        {
          "indexed": true,
          "internalType": "address",
          "name": "seller",
          "type": "address"
        }
      ],
      "name": "TradeExecuted",
      "type": "event"
    },
    {
      "anonymous": false,
      "inputs": [
        {
          "indexed": true,
          "internalType": "uint256",
          "name": "creditId",
          "type": "uint256"
        },
        {
          "indexed": false,
          "internalType": "bytes32",
          "name": "verificationHash",
          "type": "bytes32"
        }
      ],
      "name": "VerificationCompleted",
      "type": "event"
    },
    {
      "inputs": [
        {
          "internalType": "address",
          "name": "issuer",
          "type": "address"
        }
      ],
      "name": "authorizeIssuer",
      "outputs": [],
      "stateMutability": "nonpayable",
      "type": "function"
    },
    {
      "inputs": [
        {
          "internalType": "address",
          "name": "",
          "type": "address"
        }
      ],
      "name": "authorizedIssuers",
      "outputs": [
        {
          "internalType": "bool",
          "name": "",
          "type": "bool"
        }
      ],
      "stateMutability": "view",
      "type": "function"
    },
    {
      "inputs": [
        {
          "internalType": "uint256",
          "name": "orderId",
          "type": "uint256"
        }
      ],
      "name": "cancelOrder",
      "outputs": [],
      "stateMutability": "nonpayable",
      "type": "function"
    },
    {
      "inputs": [
        {
          "internalType": "uint256",
          "name": "",
          "type": "uint256"
        }
      ],
      "name": "carbonCredits",
      "outputs": [
        {
          "internalType": "address",
          "name": "issuer",
          "type": "address"
        },
        {
          "internalType": "euint32",
          "name": "encryptedAmount",
          "type": "bytes32"
        },
        {
          "internalType": "euint32",
          "name": "encryptedPrice",
          "type": "bytes32"
        },
        {
          "internalType": "bool",
          "name": "isActive",
          "type": "bool"
        },
        {
          "internalType": "uint256",
          "name": "timestamp",
          "type": "uint256"
        },
        {
          "internalType": "string",
          "name": "projectType",
          "type": "string"
        },
        {
          "internalType": "bytes32",
          "name": "verificationHash",
          "type": "bytes32"
        }
      ],
      "stateMutability": "view",
      "type": "function"
    },
    {
      "inputs": [
        {
          "internalType": "uint256",
          "name": "creditId",
          "type": "uint256"
        },
        {
          "internalType": "uint32",
          "name": "amount",
          "type": "uint32"
        },
        {
          "internalType": "uint32",
          "name": "maxPricePerCredit",
          "type": "uint32"
        }
      ],
      "name": "createBuyOrder",
      "outputs": [],
      "stateMutability": "nonpayable",
      "type": "function"
    },
    {
      "inputs": [
        {
          "internalType": "uint64",
          "name": "amount",
          "type": "uint64"
        }
      ],
      "name": "depositTokens",
      "outputs": [],
      "stateMutability": "nonpayable",
      "type": "function"
    },
    {
      "inputs": [
        {
          "internalType": "uint256",
          "name": "orderId",
          "type": "uint256"
        }
      ],
      "name": "executeTrade",
      "outputs": [],
      "stateMutability": "nonpayable",
      "type": "function"
    },
    {
      "inputs": [
        {
          "internalType": "uint256",
          "name": "creditId",
          "type": "uint256"
        }
      ],
      "name": "getCreditInfo",
      "outputs": [
        {
          "internalType": "address",
          "name": "issuer",
          "type": "address"
        },
        {
          "internalType": "bool",
          "name": "isActive",
          "type": "bool"
        },
        {
          "internalType": "uint256",
          "name": "timestamp",
          "type": "uint256"
        },
        {
          "internalType": "string",
          "name": "projectType",
          "type": "string"
        },
        {
          "internalType": "bytes32",
          "name": "verificationHash",
          "type": "bytes32"
        }
      ],
      "stateMutability": "view",
      "type": "function"
    },
    {
      "inputs": [],
      "name": "getMyBalances",
      "outputs": [
        {
          "internalType": "euint64",
          "name": "encryptedCreditBalance",
          "type": "bytes32"
        },
        {
          "internalType": "euint64",
          "name": "encryptedTokenBalance",
          "type": "bytes32"
        }
      ],
      "stateMutability": "view",
      "type": "function"
    },
    {
      "inputs": [],
      "name": "getMyCreditIds",
      "outputs": [
        {
          "internalType": "uint256[]",
          "name": "",
          "type": "uint256[]"
        }
      ],
      "stateMutability": "view",
      "type": "function"
    },
    {
      "inputs": [],
      "name": "getMyOrderIds",
      "outputs": [
        {
          "internalType": "uint256[]",
          "name": "",
          "type": "uint256[]"
        }
      ],
      "stateMutability": "view",
      "type": "function"
    },
    {
      "inputs": [
        {
          "internalType": "uint256",
          "name": "orderId",
          "type": "uint256"
        }
      ],
      "name": "getOrderInfo",
      "outputs": [
        {
          "internalType": "address",
          "name": "buyer",
          "type": "address"
        },
        {
          "internalType": "address",
          "name": "seller",
          "type": "address"
        },
        {
          "internalType": "bool",
          "name": "isActive",
          "type": "bool"
        },
        {
          "internalType": "bool",
          "name": "isFulfilled",
          "type": "bool"
        },
        {
          "internalType": "uint256",
          "name": "timestamp",
          "type": "uint256"
        },
        {
          "internalType": "uint256",
          "name": "creditId",
          "type": "uint256"
        }
      ],
      "stateMutability": "view",
      "type": "function"
    },
    {
      "inputs": [],
      "name": "getSystemStats",
      "outputs": [
        {
          "internalType": "uint256",
          "name": "totalCredits",
          "type": "uint256"
        },
        {
          "internalType": "uint256",
          "name": "totalOrders",
          "type": "uint256"
        }
      ],
      "stateMutability": "view",
      "type": "function"
    },
    {
      "inputs": [
        {
          "internalType": "address",
          "name": "issuer",
          "type": "address"
        }
      ],
      "name": "isAuthorizedIssuer",
      "outputs": [
        {
          "internalType": "bool",
          "name": "",
          "type": "bool"
        }
      ],
      "stateMutability": "view",
      "type": "function"
    },
    {
      "inputs": [
        {
          "internalType": "address",
          "name": "user",
          "type": "address"
        }
      ],
      "name": "isUserRegistered",
      "outputs": [
        {
          "internalType": "bool",
          "name": "",
          "type": "bool"
        }
      ],
      "stateMutability": "view",
      "type": "function"
    },
    {
      "inputs": [
        {
          "internalType": "uint32",
          "name": "amount",
          "type": "uint32"
        },
        {
          "internalType": "uint32",
          "name": "pricePerCredit",
          "type": "uint32"
        },
        {
          "internalType": "string",
          "name": "projectType",
          "type": "string"
        },
        {
          "internalType": "bytes32",
          "name": "verificationHash",
          "type": "bytes32"
        }
      ],
      "name": "issueCarbonCredits",
      "outputs": [],
      "stateMutability": "nonpayable",
      "type": "function"
    },
    {
      "inputs": [],
      "name": "nextCreditId",
      "outputs": [
        {
          "internalType": "uint256",
          "name": "",
          "type": "uint256"
        }
      ],
      "stateMutability": "view",
      "type": "function"
    },
    {
      "inputs": [],
      "name": "nextOrderId",
      "outputs": [
        {
          "internalType": "uint256",
          "name": "",
          "type": "uint256"
        }
      ],
      "stateMutability": "view",
      "type": "function"
    },
    {
      "inputs": [
        {
          "internalType": "uint256",
          "name": "",
          "type": "uint256"
        }
      ],
      "name": "orders",
      "outputs": [
        {
          "internalType": "address",
          "name": "buyer",
          "type": "address"
        },
        {
          "internalType": "address",
          "name": "seller",
          "type": "address"
        },
        {
          "internalType": "euint32",
          "name": "encryptedAmount",
          "type": "bytes32"
        },
        {
          "internalType": "euint32",
          "name": "encryptedMaxPrice",
          "type": "bytes32"
        },
        {
          "internalType": "euint64",
          "name": "encryptedTotalValue",
          "type": "bytes32"
        },
        {
          "internalType": "bool",
          "name": "isActive",
          "type": "bool"
        },
        {
          "internalType": "bool",
          "name": "isFulfilled",
          "type": "bool"
        },
        {
          "internalType": "uint256",
          "name": "timestamp",
          "type": "uint256"
        },
        {
          "internalType": "uint256",
          "name": "creditId",
          "type": "uint256"
        }
      ],
      "stateMutability": "view",
      "type": "function"
    },
    {
      "inputs": [],
      "name": "owner",
      "outputs": [
        {
          "internalType": "address",
          "name": "",
          "type": "address"
        }
      ],
      "stateMutability": "view",
      "type": "function"
    },
    {
      "inputs": [],
      "name": "registerUser",
      "outputs": [],
      "stateMutability": "nonpayable",
      "type": "function"
    },
    {
      "inputs": [
        {
          "internalType": "uint256",
          "name": "creditId",
          "type": "uint256"
        },
        {
          "internalType": "bytes32",
          "name": "newVerificationHash",
          "type": "bytes32"
        }
      ],
      "name": "updateVerification",
      "outputs": [],
      "stateMutability": "nonpayable",
      "type": "function"
    },
    {
      "inputs": [
        {
          "internalType": "address",
          "name": "",
          "type": "address"
        }
      ],
      "name": "userBalances",
      "outputs": [
        {
          "internalType": "euint64",
          "name": "encryptedCreditBalance",
          "type": "bytes32"
        },
        {
          "internalType": "euint64",
          "name": "encryptedTokenBalance",
          "type": "bytes32"
        },
        {
          "internalType": "bool",
          "name": "isRegistered",
          "type": "bool"
        }
      ],
      "stateMutability": "view",
      "type": "function"
    },
    {
      "inputs": [
        {
          "internalType": "address",
          "name": "",
          "type": "address"
        },
        {
          "internalType": "uint256",
          "name": "",
          "type": "uint256"
        }
      ],
      "name": "userCreditIds",
      "outputs": [
        {
          "internalType": "uint256",
          "name": "",
          "type": "uint256"
        }
      ],
      "stateMutability": "view",
      "type": "function"
    },
    {
      "inputs": [
        {
          "internalType": "address",
          "name": "",
          "type": "address"
        },
        {
          "internalType": "uint256",
          "name": "",
          "type": "uint256"
        }
      ],
      "name": "userOrderIds",
      "outputs": [
        {
          "internalType": "uint256",
          "name": "",
          "type": "uint256"
        }
      ],
      "stateMutability": "view",
      "type": "function"
    }
  ],
  "bytecode": "0x608060405234801561001057600080fd5b50600080546001600160a01b0319163390811782556001808055600281905590825260066020526040909120805460ff19169091179055611fa3806100566000396000f3fe608060405234801561001057600080fd5b50600436106101735760003560e01c80635a7dd27c116100de578063a98048df11610097578063d311636b11610071578063d311636b1461046f578063e5382d7914610505578063f731fa0f1461050d578063fc00b7981461053057600080fd5b8063a98048df14610437578063c33fb79814610454578063d1ce59a71461046757600080fd5b80635a7dd27c146102df5780636828a39a1461030557806374d9f98f146103185780637c3772231461032b5780638da5cb5b1461034f578063a85c38ef1461037a57600080fd5b806331ba19661161013057806331ba19661461025d578063436693d5146102895780634852e8d31461029c5780634d3820eb146102af578063514fcac7146102b7578063591825c9146102ca57600080fd5b806302d2838b14610178578063163f75221461018d57806317528323146101d157806320d98d74146101f257806326224c64146102055780632a58b33014610254575b600080fd5b61018b6101863660046119a2565b610539565b005b6101bc61019b3660046119d7565b6001600160a01b031660009081526005602052604090206002015460ff1690565b60405190151581526020015b60405180910390f35b6101e46101df3660046119f2565b610811565b6040519081526020016101c8565b61018b610200366004611a30565b610842565b6102376102133660046119d7565b60056020526000908152604090208054600182015460029092015490919060ff1683565b6040805193845260208401929092521515908201526060016101c8565b6101e460025481565b6101bc61026b3660046119d7565b6001600160a01b031660009081526006602052604090205460ff1690565b61018b6102973660046119d7565b610b6a565b6101e46102aa3660046119f2565b610c01565b61018b610c1d565b61018b6102c53660046119a2565b610d58565b6102d2610e58565b6040516101c89190611a6c565b6102f26102ed3660046119a2565b610eb9565b6040516101c89796959493929190611af6565b61018b610313366004611b45565b610f8f565b61018b610326366004611b6f565b611046565b61033e6103393660046119a2565b61134e565b6040516101c8959493929190611c05565b600054610362906001600160a01b031681565b6040516001600160a01b0390911681526020016101c8565b6103e46103883660046119a2565b6004602081905260009182526040909120805460018201546002830154600384015494840154600585015460068601546007909601546001600160a01b039586169794909516959294919260ff80831693610100909304169189565b604080516001600160a01b039a8b1681529990981660208a01529688019590955260608701939093526080860191909152151560a0850152151560c084015260e0830152610100820152610120016101c8565b61043f611434565b604080519283526020830191909152016101c8565b61018b610462366004611c46565b611485565b61043f611530565b6104c561047d3660046119a2565b600090815260046020526040902080546001820154600583015460068401546007909401546001600160a01b0393841695939092169360ff8083169461010090930416929091565b604080516001600160a01b0397881681529690951660208701529215159385019390935215156060840152608083019190915260a082015260c0016101c8565b6102d2611558565b6101bc61051b3660046119d7565b60066020526000908152604090205460ff1681565b6101e460015481565b3360009081526005602052604090206002015460ff166105745760405162461bcd60e51b815260040161056b90611c68565b60405180910390fd5b6000818152600460209081526040808320600781015484526003909252909120600582015460ff166105db5760405162461bcd60e51b815260206004820152601060248201526f4f72646572206e6f742061637469766560801b604482015260640161056b565b6005820154610100900460ff161561062f5760405162461bcd60e51b815260206004820152601760248201527613dc99195c88185b1c9958591e48199d5b199a5b1b1959604a1b604482015260640161056b565b60018201546001600160a01b0316331461067c5760405162461bcd60e51b815260206004820152600e60248201526d2737ba103a34329039b2b63632b960911b604482015260640161056b565b60006106a061068e84600201546115b7565b61069b84600201546115b7565b6115ca565b83546001600160a01b03166000908152600560205260409020600101549091506106ca9082611603565b83546001600160a01b0316600090815260056020526040808220600190810193909355338252902001546106fe9082611635565b336000908152600560205260408120600101919091556002840154610722906115b7565b3360009081526005602052604090205490915061073f9082611603565b336000908152600560205260408082209290925585546001600160a01b03168152205461076c9082611635565b84546001600160a01b039081166000908152600560208190526040808320949094558701805461ffff19166101001790558654925133939092169188917f4d16bcd970ae0d8ad8871781ba650086db49df05d8ead538c980797d0d9235f991a483546040516001600160a01b0390911690600080516020611f4e83398151915290600090a26040513390600080516020611f4e83398151915290600090a25050505050565b6007602052816000526040600020818154811061082d57600080fd5b90600052602060002001600091509150505481565b3360009081526005602052604090206002015460ff166108745760405162461bcd60e51b815260040161056b90611c68565b6000838152600360208190526040909120015460ff166108ca5760405162461bcd60e51b8152602060048201526011602482015270437265646974206e6f742061637469766560781b604482015260640161056b565b60008263ffffffff16116108f05760405162461bcd60e51b815260040161056b90611c95565b60006108fb83611667565b9050600061090883611667565b9050600061092d61091e8663ffffffff1661167a565b61069b8663ffffffff1661167a565b9050604051806101200160405280336001600160a01b031681526020016003600089815260200190815260200160002060000160009054906101000a90046001600160a01b03166001600160a01b031681526020018481526020018381526020018281526020016001151581526020016000151581526020014281526020018781525060046000600254815260200190815260200160002060008201518160000160006101000a8154816001600160a01b0302191690836001600160a01b0316021790555060208201518160010160006101000a8154816001600160a01b0302191690836001600160a01b0316021790555060408201518160020155606082015181600301556080820151816004015560a08201518160050160006101000a81548160ff02191690831515021790555060c08201518160050160016101000a81548160ff02191690831515021790555060e082015181600601556101008201518160070155905050610a9e83611691565b50610aa882611691565b50610ab281611691565b50610abd83336116a1565b50610ac882336116a1565b50610ad381336116a1565b50600086815260036020526040902054610af79084906001600160a01b03166116a1565b5033600081815260086020908152604080832060028054825460018101845592865293852090910192909255905490518993927f28eb86fd03c9bd96a8a83e4a46ab2ad257b70cea893d98ad6d482e96aa25fad091a460028054906000610b5d83611ce2565b9190505550505050505050565b6000546001600160a01b03163314610bb55760405162461bcd60e51b815260206004820152600e60248201526d139bdd08185d5d1a1bdc9a5e995960921b604482015260640161056b565b6001600160a01b038116600081815260066020526040808220805460ff19166001179055517f8b4006ca14f23d4e7aa8d120d1ab7c3761d650eefac1a5d6732dbea94b54ea249190a250565b6008602052816000526040600020818154811061082d57600080fd5b3360009081526005602052604090206002015460ff1615610c755760405162461bcd60e51b8152602060048201526012602482015271105b1c9958591e481c9959da5cdd195c995960721b604482015260640161056b565b6040518060600160405280610c8a600061167a565b8152602001610c99600061167a565b815260016020918201819052336000908152600583526040908190208451808255938501519281019290925592909201516002909201805460ff191692151592909217909155610ce890611691565b5033600090815260056020526040902060010154610d0590611691565b5033600081815260056020526040902054610d1f916116a1565b5033600081815260056020526040902060010154610d3c916116a1565b506040513390600080516020611f4e83398151915290600090a2565b600081815260046020526040902080546001600160a01b03163314610daf5760405162461bcd60e51b815260206004820152600d60248201526c2737ba103a343290313abcb2b960991b604482015260640161056b565b600581015460ff16610df65760405162461bcd60e51b815260206004820152601060248201526f4f72646572206e6f742061637469766560801b604482015260640161056b565b6005810154610100900460ff1615610e4a5760405162461bcd60e51b815260206004820152601760248201527613dc99195c88185b1c9958591e48199d5b199a5b1b1959604a1b604482015260640161056b565b600501805460ff1916905550565b33600090815260086020908152604091829020805483518184028101840190945280845260609392830182828015610eaf57602002820191906000526020600020905b815481526020019060010190808311610e9b575b5050505050905090565b60036020819052600091825260409091208054600182015460028301549383015460048401546005850180546001600160a01b03909516969395939460ff909316939192610f0690611cfb565b80601f0160208091040260200160405190810160405280929190818152602001828054610f3290611cfb565b8015610f7f5780601f10610f5457610100808354040283529160200191610f7f565b820191906000526020600020905b815481529060010190602001808311610f6257829003601f168201915b5050505050908060060154905087565b3360009081526005602052604090206002015460ff16610fc15760405162461bcd60e51b815260040161056b90611c68565b60008167ffffffffffffffff1611610feb5760405162461bcd60e51b815260040161056b90611c95565b6000610ff68261167a565b336000908152600560205260409020600101549091506110169082611635565b336000818152600560205260408082206001019390935591519091600080516020611f4e83398151915291a25050565b3360009081526006602052604090205460ff1661109d5760405162461bcd60e51b81526020600482015260156024820152742737ba1030baba3437b934bd32b21034b9b9bab2b960591b604482015260640161056b565b3360009081526005602052604090206002015460ff166110cf5760405162461bcd60e51b815260040161056b90611c68565b60008563ffffffff16116110f55760405162461bcd60e51b815260040161056b90611c95565b60008463ffffffff16116111445760405162461bcd60e51b81526020600482015260166024820152755072696365206d75737420626520706f73697469766560501b604482015260640161056b565b600061114f86611667565b9050600061115c86611667565b90506040518060e00160405280336001600160a01b0316815260200183815260200182815260200160011515815260200142815260200186868080601f016020809104026020016040519081016040528093929190818152602001838380828437600092018290525093855250505060209182018690526001805482526003808452604092839020855181546001600160a01b0319166001600160a01b0390911617815593850151918401919091559083015160028301556060830151908201805460ff19169115159190911790556080820151600482015560a082015160058201906112499082611d9c565b5060c0820151816006015590505061126082611691565b5061126a81611691565b5061127582336116a1565b5061128081336116a1565b50336000908152600560205260409020546112a9906112a463ffffffff8a1661167a565b611635565b336000818152600560209081526040808320949094556007815283822060018054825480830184559285529290932001555491519091907f5c286b0827e85645e9a9c8445e3505e412c303fc36b74ffff3a4c87b6968b2009061130f9089908990611e5c565b60405180910390a36040513390600080516020611f4e83398151915290600090a26001805490600061134083611ce2565b919050555050505050505050565b600081815260036020819052604082208054918101546004820154600683015460058401805487968796606096889691956001600160a01b039093169460ff909116939192909182906113a090611cfb565b80601f01602080910402602001604051908101604052809291908181526020018280546113cc90611cfb565b80156114195780601f106113ee57610100808354040283529160200191611419565b820191906000526020600020905b8154815290600101906020018083116113fc57829003601f168201915b50505050509150955095509550955095505091939590929450565b33600090815260056020526040812060020154819060ff166114685760405162461bcd60e51b815260040161056b90611c68565b505033600090815260056020526040902080546001909101549091565b6000828152600360205260409020546001600160a01b031633146114dc5760405162461bcd60e51b815260206004820152600e60248201526d2737ba103a34329034b9b9bab2b960911b604482015260640161056b565b600082815260036020526040908190206006018290555182907fc29e08ba9243b80a06bfd34cc523d4fddde9fadc6f475c8289adefba43934f53906115249084815260200190565b60405180910390a25050565b600080600180546115419190611e8b565b60016002546115509190611e8b565b915091509091565b33600090815260076020908152604091829020805483518184028101840190945280845260609392830182828015610eaf5760200282019190600052602060002090815481526020019060010190808311610e9b575050505050905090565b60006115c48260056116b4565b92915050565b6000826115de576115db600061167a565b92505b816115f0576115ed600061167a565b91505b6115fc83836000611751565b9392505050565b60008261161757611614600061167a565b92505b8161162957611626600061167a565b91505b6115fc83836000611805565b60008261164957611646600061167a565b92505b8161165b57611658600061167a565b91505b6115fc8383600061186c565b60006115c48263ffffffff1660046118d3565b60006115c48267ffffffffffffffff1660056118d3565b600061169d8230611925565b5090565b60006116ad8383611925565b5090919050565b600080516020611f0e833981519152546040516307227b9160e21b8152600091600080516020611f2e833981519152916001600160a01b0390911690631c89ee44906117069087908790600401611ec0565b6020604051808303816000875af1158015611725573d6000803e3d6000fd5b505050506040513d601f19601f820116820180604052508101906117499190611ed4565b949350505050565b60008082156117655750600160f81b611769565b5060005b600080516020611f0e83398151915254604051630afe14ad60e31b8152600080516020611f2e833981519152916001600160a01b0316906357f0a568906117b890899089908790600401611eed565b6020604051808303816000875af11580156117d7573d6000803e3d6000fd5b505050506040513d601f19601f820116820180604052508101906117fb9190611ed4565b9695505050505050565b60008082156118195750600160f81b61181d565b5060005b600080516020611f0e833981519152546040516303056db360e31b8152600080516020611f2e833981519152916001600160a01b03169063182b6d98906117b890899089908790600401611eed565b60008082156118805750600160f81b611884565b5060005b600080516020611f0e8339815191525460405163022f65e760e31b8152600080516020611f2e833981519152916001600160a01b03169063117b2f38906117b890899089908790600401611eed565b600080516020611f0e83398151915254604051639cd07acb60e01b8152600091600080516020611f2e833981519152916001600160a01b0390911690639cd07acb906117069087908790600401611ec0565b6000600080516020611f2e8339815191528054604051635ca4b5b160e11b8152600481018690526001600160a01b03858116602483015292935091169063b9496b6290604401600060405180830381600087803b15801561198557600080fd5b505af1158015611999573d6000803e3d6000fd5b50505050505050565b6000602082840312156119b457600080fd5b5035919050565b80356001600160a01b03811681146119d257600080fd5b919050565b6000602082840312156119e957600080fd5b6115fc826119bb565b60008060408385031215611a0557600080fd5b611a0e836119bb565b946020939093013593505050565b803563ffffffff811681146119d257600080fd5b600080600060608486031215611a4557600080fd5b83359250611a5560208501611a1c565b9150611a6360408501611a1c565b90509250925092565b6020808252825182820181905260009190848201906040850190845b81811015611aa457835183529284019291840191600101611a88565b50909695505050505050565b6000815180845260005b81811015611ad657602081850181015186830182015201611aba565b506000602082860101526020601f19601f83011685010191505092915050565b60018060a01b0388168152866020820152856040820152841515606082015283608082015260e060a08201526000611b3160e0830185611ab0565b90508260c083015298975050505050505050565b600060208284031215611b5757600080fd5b813567ffffffffffffffff811681146115fc57600080fd5b600080600080600060808688031215611b8757600080fd5b611b9086611a1c565b9450611b9e60208701611a1c565b9350604086013567ffffffffffffffff80821115611bbb57600080fd5b818801915088601f830112611bcf57600080fd5b813581811115611bde57600080fd5b896020828501011115611bf057600080fd5b96999598505060200195606001359392505050565b60018060a01b0386168152841515602082015283604082015260a060608201526000611c3460a0830185611ab0565b90508260808301529695505050505050565b60008060408385031215611c5957600080fd5b50508035926020909101359150565b602080825260139082015272155cd95c881b9bdd081c9959da5cdd195c9959606a1b604082015260600190565b60208082526017908201527f416d6f756e74206d75737420626520706f736974697665000000000000000000604082015260600190565b634e487b7160e01b600052601160045260246000fd5b600060018201611cf457611cf4611ccc565b5060010190565b600181811c90821680611d0f57607f821691505b602082108103611d2f57634e487b7160e01b600052602260045260246000fd5b50919050565b634e487b7160e01b600052604160045260246000fd5b601f821115611d97576000816000526020600020601f850160051c81016020861015611d745750805b601f850160051c820191505b81811015611d9357828155600101611d80565b5050505b505050565b815167ffffffffffffffff811115611db657611db6611d35565b611dca81611dc48454611cfb565b84611d4b565b602080601f831160018114611dff5760008415611de75750858301515b600019600386901b1c1916600185901b178555611d93565b600085815260208120601f198616915b82811015611e2e57888601518255948401946001909101908401611e0f565b5085821015611e4c5787850151600019600388901b60f8161c191681555b5050505050600190811b01905550565b60208152816020820152818360408301376000818301604090810191909152601f909201601f19160101919050565b818103818111156115c4576115c4611ccc565b60548110611ebc57634e487b7160e01b600052602160045260246000fd5b9052565b828152604081016115fc6020830184611e9e565b600060208284031215611ee657600080fd5b5051919050565b92835260208301919091526001600160f81b03191660408201526060019056fe9e7b61f58c47dc699ac88507c4f5bb9f121c03808c5676a8078fe583e46497019e7b61f58c47dc699ac88507c4f5bb9f121c03808c5676a8078fe583e464970013bc0fcf14f8f3ca0cb562786d0618c57a13e52bbdb4c041763d96acbfa07624a264697066735822122021627b7369585d59d406465035906011e7219f7691c29097ae47f256fb66f75b64736f6c63430008180033",
  "linkReferences": {},
  "deployedLinkReferences": {}
}